:020000040000FA
:040000009AEF0BF078
:0800080052EF0AF0D9CFE5FF29
:10001000E1CFD9FF00C0E5FF01C0E5FF02C0E5FF69
:1000200003C0E5FF04C0E5FF05C0E5FF06C0E5FF2E
:1000300007C0E5FF08C0E5FF020EE56E000EE56EA5
:1000400000EC0BF0020EE126480E006E0D0E016E64
:10005000026A036A00C004F001C005F002C006F0A5
:1000600003C007F0FF0E0026FF0E0122FF0E022242
:10007000FF0E03220450051006100710EBE1006A82
:1000800000C001F0026A000E025C02E1100E015C89
:10009000D8B057D0370E0024016E026A0F0E02222C
:1000A00001C0E9FF02C0EAFFEFCF01F0015019E102
:1000B00000C001F001C002F0036A000E035C02E11F
:1000C000100E025C0EE2370E0124026E036A0F0E60
:1000D000032202C0E9FF03C0EAFF200EEF6E012AEF
:1000E000E9D7370E0024016E026A0F0E022201C00A
:1000F000E9FF02C0EAFFEFCF01F00150E56E010E0B
:10010000E56E00EC0BF0020EE126550E016E026A60
:10011000036A046A01C005F002C006F003C007F0DC
:1001200004C008F0FF0E0126FF0E0222FF0E03227C
:10013000FF0E04220550061007100810EBE1002AFC
:100140009FD7C00EE56E000EE56E00EC0BF0020EC0
:10015000E126550E006E016A026A036A00C004F0CF
:1001600001C005F002C006F003C007F0FF0E002634
:10017000FF0E0122FF0E0222FF0E03220450051083
:1001800006100710EBE1100E006E00C001F0026ACD
:10019000000E025C02E1200E015CD8B057D0370E91
:1001A0000024016E026A0F0E022201C0E9FF02C0A4
:1001B000EAFFEFCF01F0015019E100C001F001C0EA
:1001C00002F0036A000E035C02E1200E025C0EE204
:1001D000370E0124026E036A0F0E032202C0E9FFEC
:1001E00003C0EAFF200EEF6E012AE9D7370E002484
:1001F000016E026A0F0E022201C0E9FF02C0EAFF8F
:10020000EFCF01F00150E56E010EE56E00EC0BF052
:10021000020EE126550E016E026A036A046A01C0ED
:1002200005F002C006F003C007F004C008F0FF0E9E
:100230000126FF0E0222FF0E0322FF0E04220550AC
:10024000061007100810EBE1002A9FD7E4CF08F052
:10025000E4CF07F0E4CF06F0E4CF05F0E4CF04F0FC
:10026000E4CF03F0E4CF02F0E4CF01F0E4CF00F0FC
:10027000E4CFD9FF1200D9CFE5FFE1CFD9FF00C00D
:10028000E5FF01C0E5FF02C0E5FF03C0E5FF04C0D4
:10029000E5FF05C0E5FF06C0E5FF07C0E5FF08C0B4
:1002A000E5FF000EE56E200EE56E200EE56E0F0EEA
:1002B000E56E370EE56E13EC08F0050EE1260F0132
:1002C000576B90909092966A999299949990A00EFB
:1002D000006E090E016E010E026E036A00C004F08A
:1002E00001C005F002C006F003C007F0FF0E0026B3
:1002F000FF0E0122FF0E0222FF0E03220450051002
:1003000006100710EBE19094030E8D6E00000000C4
:10031000006A00C001F0026A000E025C02E1030EF6
:10032000015C39E29080110E016E026A036A046A70
:1003300001C005F002C006F003C007F004C008F0D9
:10034000FF0E0126FF0E0222FF0E0322FF0E0422E3
:100350000550061007100810EBE19090480E016E52
:100360000D0E026E036A046A01C005F002C006F0B9
:1003700003C007F004C008F0FF0E0126FF0E0222A2
:10038000FF0E0322FF0E042205500610071008106E
:10039000EBE1002ABED7380EE56E000EE56E00ECEC
:1003A0000BF0020EE126550E006E016A026A036A26
:1003B00000C004F001C005F002C006F003C007F061
:1003C000FF0E0026FF0E0122FF0E0222FF0E032267
:1003D0000450051006100710EBE1060EE56E000E46
:1003E000E56E00EC0BF0020EE126550E006E016A80
:1003F000026A036A00C004F001C005F002C006F002
:1004000003C007F0FF0E0026FF0E0122FF0E02229E
:10041000FF0E03220450051006100710EBE10C0E2E
:10042000E56E000EE56E00EC0BF0020EE126550EB7
:10043000006E016A026A036A00C004F001C005F0A0
:1004400002C006F003C007F0FF0E0026FF0E0122D7
:10045000FF0E0222FF0E03220450051006100710A3
:10046000EBE1010EE56E000EE56E00EC0BF0020E06
:10047000E126480E006E0D0E016E026A036A00C08E
:1004800004F001C005F002C006F003C007F0FF0E43
:100490000026FF0E0122FF0E0222FF0E032204504F
:1004A000051006100710EBE1E4CF08F0E4CF07F0E9
:1004B000E4CF06F0E4CF05F0E4CF04F0E4CF03F09E
:1004C000E4CF02F0E4CF01F0E4CF00F0E4CFD9FFB5
:1004D0001200D9CFE5FFE1CFD9FF00C0E5FF01C091
:1004E000E5FF02C0E5FF03C0E5FF04C0E5FF05C06E
:1004F000E5FF06C0E5FF07C0E5FF08C0E5FF09C04E
:10050000E5FF0AC0E5FF0BC0E5FF0CC0E5FF0DC02D
:10051000E5FF0EC0E5FF0FC0E5FF10C0E5FF11C00D
:10052000E5FF12C0E5FF13C0E5FF14C0E5FF15C0ED
:10053000E5FF020EDBCF00F0030EDBCF01F0040E6F
:10054000DBCF02F0050EDBCF03F0060EDBCF04F0AD
:10055000070EDBCF05F0080EDBCF06F0090EDBCF70
:1005600007F000C008F001C009F002C00AF003C0A3
:100570000BF004C00CF005C00DF006C00EF007C073
:100580000FF006500710D8B43ED003C010F004C0DE
:1005900011F005C012F006C013F007C014F0FF0EF2
:1005A0001326D8A01406135014101DE010C0E9FF44
:1005B00011C0F3FF125089EC0BF0156E102AD8B061
:1005C000112AD8B0122A15C0E5FF00C0E9FF01C00A
:1005D000F3FF0250A6EC0BF0002AD8B0012AD8B0E5
:1005E000022A1550DCE110C00BF011C00CF012C053
:1005F0000DF000C008F001C009F002C00AF013C0FD
:100600000EF014C00FF00E500F1027E10650071027
:1006100009E0000EE56E08C0E9FF09C0F3FF0A50CB
:10062000A6EC0BF00BC000F00CC001F00DC002F006
:1006300000C0E9FF01C0F3FF025089EC0BF0066E29
:10064000002AD8B0012AD8B0022A0650F1E100C031
:100650000BF001C00CF002C00DF003500B5C036EF8
:1006600004500C58046EFF0E0326D8A0040604C0E4
:10067000F3FF0350E4CF15F0E4CF14F0E4CF13F010
:10068000E4CF12F0E4CF11F0E4CF10F0E4CF0FF09C
:10069000E4CF0EF0E4CF0DF0E4CF0CF0E4CF0BF09C
:1006A000E4CF0AF0E4CF09F0E4CF08F0E4CF07F09C
:1006B000E4CF06F0E4CF05F0E4CF04F0E4CF03F09C
:1006C000E4CF02F0E4CF01F0E4CF00F0E4CFD9FFB3
:1006D0001200D9CFE5FFE1CFD9FF00C0E5FF01C08F
:1006E000E5FF02C0E5FF03C0E5FF04C0E5FF05C06C
:1006F000E5FF020EDBCF00F0030EDBCF01F0040EAE
:10070000DBCF02F0036A046A0A0EE56E0F0EE56E97
:10071000580EE56E0450E56E0350E56E0250E56E2E
:100720000150E56E63EC04F0070EE126016A0F0E3E
:10073000036E580E026E800E046E0450E56E035078
:10074000E56E0250E56E12EC0AF0026EF3CF03F094
:10075000030EE12601C004F0056A0550800FF36E18
:100760000350800FF35C02E10250045C1CE200C005
:1007700002F0002A036A370E02260F0E0322580EDB
:100780000124046E056A0F0E052204C0E9FF05C0AE
:10079000EAFFEFCF04F002C0E9FF03C0EAFF04C0A4
:1007A000EFFF012AC4D700C001F0026A000E025C0C
:1007B00002E1200E015C0BE2016A370E00260F0EEB
:1007C000012200C0E9FF01C0EAFF000EEF6E06EC57
:1007D00000F0E4CF05F0E4CF04F0E4CF03F0E4CF81
:1007E00002F0E4CF01F0E4CF00F0E4CFD9FF120033
:1007F00020202020202020202020202020202020F9
:100800000000000053544152545550005741495480
:100810005F464F525F52454C45415345000057419A
:1008200049545F484F5552530000574149545F4D5A
:10083000494E5300574149545F5345435300534574
:10084000545F54494D450000494E435F484F55524F
:100850005300494E435F4D494E530000494E435F9C
:10086000534543530000494E435F534543535F3262
:100870000000494E435F4D494E535F320000494EE0
:10088000435F484F5552535F320052455345540021
:10089000494E435F484F5552535F574149540000FA
:1008A000494E435F4D494E535F5741495400494EAD
:1008B000435F534543535F57414954004445424FBA
:1008C000554E43450000D9CFE5FFE1CFD9FF00C029
:1008D000E5FF01C0E5FF02C0E5FF03C0E5FF04C07E
:1008E000E5FF05C0E5FF06C0E5FF07C0E5FF08C05E
:1008F000E5FF09C0E5FF0AC0E5FF0BC0E5FF0CC03E
:10090000E5FF0DC0E5FF0EC0E5FF0FC0E5FF020EDD
:10091000DBCF00F0030EDBCF01F0040EDBCF02F0E3
:10092000050EDBCF03F0060EDBCF04F0070EDBCFA6
:1009300005F0080EDBCF06F0200E076E086A06C031
:1009400009F00A6A0B6A0C6AE56AE56AE56A095009
:10095000E56E0350E56E0250E56E0150E56E005005
:10096000E56EF6EC05F00D6E080EE126300E0D2654
:100970003A0E0D5C02E3270E0D26FF0E0726D8A0C7
:100980000806000E07240E6E0E0E08200F6E0EC015
:10099000E9FF0FC0EAFF0DC0EFFF0C50E56E0B50F2
:1009A000E56E0A50E56E0950E56E0350E56E0250A3
:1009B000E56E0150E56E0050E56E88EC06F0006EC5
:1009C000F3CF01F0F4CF02F0E9CF03F0080EE126F7
:1009D0000050011002100310D8A4B1D707C000F0D6
:1009E00008C001F004C002F005C003F000C004F02C
:1009F00001C005F0002AD8B0012A000E04260E0E10
:100A0000052204C0E9FF05C0EAFFEFCF04F002C0F1
:100A1000E9FF03C0EAFF04C0EFFF022AD8B0032AAF
:100A2000000E015C02E1200E005CE0E302C0E9FF81
:100A300003C0EAFF000EEF6AE4CF0FF0E4CF0EF040
:100A4000E4CF0DF0E4CF0CF0E4CF0BF0E4CF0AF0EC
:100A5000E4CF09F0E4CF08F0E4CF07F0E4CF06F0EC
:100A6000E4CF05F0E4CF04F0E4CF03F0E4CF02F0EC
:100A7000E4CF01F0E4CF00F0E4CFD9FF1200D9CFEA
:100A8000E5FFE1CFD9FF00C0E5FF01C0E5FF02C0EF
:100A9000E5FF006A080E005C0EE2200E0024016EE5
:100AA000026A0E0E022201C0E9FF02C0EAFF300E08
:100AB000EF6E002AEFD70A0E0F01335D1FE30A0E17
:100AC000E56E33CFE5FF8FEC0AF0006EE450E450A2
:100AD0000E012151002600500E01216F0A0EE56E15
:100AE00033CFE5FFC9EC0AF0006EE450E4500E018C
:100AF0002051002600500E01206F08D033CF00F0A7
:100B00000E012151002600500E01216F3A0E0E01F8
:100B1000226F0A0E0F01345D1FE30A0EE56E34CF1B
:100B2000E5FF8FEC0AF0006EE450E4500E01245112
:100B3000002600500E01246F0A0EE56E34CFE5FF4B
:100B4000C9EC0AF0006EE450E4500E012351002677
:100B500000500E01236F08D034CF00F00E01245155
:100B6000002600500E01246F2E0E0E01256F0A0E76
:100B70000F01355D1FE30A0EE56E35CFE5FF8FEC03
:100B80000AF0006EE450E4500E0127510026005098
:100B90000E01276F0A0EE56E35CFE5FFC9EC0AF0AE
:100BA000006EE450E4500E012651002600500E0164
:100BB000266F08D035CF00F00E01275100260050D7
:100BC0000E01276F0E0E016E200E006E800E026E5B
:100BD00002C0F4FF01C0F3FF0050E4CF02F0E4CF05
:100BE00001F0E4CF00F0E4CFD9FF1200D9CFE5FF48
:100BF000E1CFD9FF00C0E5FF01C0E5FF02C0E5FF7E
:100C000003C0E5FF04C0E5FF05C0E5FF06C0E5FF42
:100C100007C0E5FF08C0E5FF09C0E5FF0AC0E5FF22
:100C2000020EDBCF00F0030EDBCF01F0040EDBCFB2
:100C300002F0050EDBCF03F0060EDBCF04F0070E4B
:100C4000DBCF05F0080EDBCF06F0090EDBCF07F097
:100C5000086A096A0744010B0A6E0AB01BD00450E7
:100C600004260536063607360750035C08E10650B1
:100C7000025C05E10550015C02E10450005C06E203
:100C8000D890073206320532043204D0092A09C04E
:100C900008F0E0D70750035C08E10650025C05E16C
:100CA0000550015C02E10450005C08E30450005E62
:100CB0000550015A0650025A0750035AD89007327D
:100CC00006320532043208C009F008060950E2E194
:100CD00003C0E9FF02C0F4FF01C0F3FF0050E4CFFE
:100CE0000AF0E4CF09F0E4CF08F0E4CF07F0E4CF56
:100CF00006F0E4CF05F0E4CF04F0E4CF03F0E4CF56
:100D000002F0E4CF01F0E4CF00F0E4CFD9FF12000D
:100D1000D9CFE5FFE1CFD9FF00C0E5FF01C0E5FF76
:100D200002C0E5FF03C0E5FF04C0E5FF05C0E5FF25
:100D300006C0E5FF07C0E5FF08C0E5FF09C0E5FF05
:100D40000AC0E5FF0BC0E5FF0CC0E5FF0DC0E5FFE5
:100D5000020EDBCF00F0030EDBCF01F0040EDBCF81
:100D600002F0050EDBCF03F0060EDBCF04F0070E1A
:100D7000DBCF05F0080EDBCF06F0090EDBCF07F066
:100D8000086A096A0A6A0B6A200E0C6E0344010B9A
:100D90000D6E010E0D160050002601360236033688
:100DA0000850082609360A360B360D50D8A408809C
:100DB00007500B5C08E106500A5C05E10550095C30
:100DC00002E10450085C09E30450085E0550095A2A
:100DD00006500A5A07500B5A00800C2ED7D703C072
:100DE000E9FF02C0F4FF01C0F3FF0050E4CF0DF0B3
:100DF000E4CF0CF0E4CF0BF0E4CF0AF0E4CF09F03D
:100E0000E4CF08F0E4CF07F0E4CF06F0E4CF05F03C
:100E1000E4CF04F0E4CF03F0E4CF02F0E4CF01F03C
:100E2000E4CF00F0E4CFD9FF1200D9CFE5FFE1CF46
:100E3000D9FF00C0E5FF01C0E5FF02C0E5FF03C028
:100E4000E5FF04C0E5FF05C0E5FF06C0E5FF07C0FC
:100E5000E5FF08C0E5FF09C0E5FF020EDBCF00F0AB
:100E6000030EDBCF01F0040EDBCF02F0050EDBCF6B
:100E700003F00350E56E0250E56E0150E56E12EC92
:100E80000AF0046EF3CF05F0030EE12600502008AF
:100E9000056E066A370E00260F0E06220650066EF5
:100EA0000050006E800E076E0550045C02E305C022
:100EB00004F0056A0450051027E004C008F005C0DE
:100EC00009F0FF0E0426D8A00506085009101CE002
:100ED00001C0E9FF02C0F3FF035089EC0BF0086E7C
:100EE000012AD8B0022AD8B0032A08C0E5FF00C002
:100EF000E9FF06C0F3FF0750A6EC0BF0002AD8B0BC
:100F0000062AD8B0072AD9D706EC00F0E4CF09F0BA
:100F1000E4CF08F0E4CF07F0E4CF06F0E4CF05F02B
:100F2000E4CF04F0E4CF03F0E4CF02F0E4CF01F02B
:100F3000E4CF00F0E4CFD9FF12009A909A929A94ED
:100F4000938693825F0ED76E5E0ED66ED59ED59C2D
:100F5000D59AD598D596070ED512F28EF28AF184DD
:100F6000D58E3BEC01F0680E006E420E016E026AF7
:100F7000036A00C004F001C005F002C006F003C01F
:100F800007F0FF0E0026FF0E0122FF0E0222FF0EC9
:100F900003220450051006100710EBE1F80E91161D
:100FA00091CF00F0F80E0016020E0010916E100E98
:100FB000006E980E016E020E026E036A00C004F00D
:100FC00001C005F002C006F003C007F0FF0E0026C6
:100FD000FF0E0122FF0E0222FF0E03220450051015
:100FE00006100710EBE1F80E9116100E006E980E29
:100FF000016E020E026E036A00C004F001C005F02B
:1010000002C006F003C007F0FF0E0026FF0E01220B
:10101000FF0E0222FF0E03220450051006100710D7
:10102000EBE1BED71200D9CFE5FFE1CFD9FF00C079
:10103000E5FF01C0E5FF02C0E5FF03C0E5FF04C016
:10104000E5FF05C0E5FF06C0E5FF07C0E5FF08C0F6
:10105000E5FF09C0E5FF020EDBCF00F0030EDBCF9A
:1010600001F0040EDBCF02F0050EDBCF03F0060E1D
:10107000DBCF04F00150066E0050056E800E076E47
:1010800003C008F004C009F0FF0E0326D8A0040630
:10109000085009100FE002C0E5FF05C0E9FF06C0D7
:1010A000F3FF0750A6EC0BF0052AD8B0062AD8B0FB
:1010B000072AE6D7800E026E02C0F4FF01C0F3FFDC
:1010C0000050E4CF09F0E4CF08F0E4CF07F0E4CF1C
:1010D00006F0E4CF05F0E4CF04F0E4CF03F0E4CF72
:1010E00002F0E4CF01F0E4CF00F0E4CFD9FF12002A
:1010F000D9CFE5FFE1CFD9FF00C0E5FF01C0E5FF93
:1011000002C0E5FF03C0E5FF04C0E5FF05C0E5FF41
:1011100006C0E5FF020EDBCF00F0030EDBCF01F0CF
:10112000040EDBCF02F0050EDBCF03F0060EDBCFA3
:1011300004F0070EDBCF05F0080EDBCF06F0D880F9
:1011400003AED89016E306500A0A13E104C0E9FF83
:1011500005C0EAFF2D0EEF6E042AD8B0052A031E43
:10116000021E011E006C05E1012A03E1022AD8B427
:10117000032A0650E56E0550E56E0450E56E0350F7
:10118000E56E0250E56E0150E56E0050E56E63ECD1
:1011900004F0070EE126E4CF06F0E4CF05F0E4CF3B
:1011A00004F0E4CF03F0E4CF02F0E4CF01F0E4CFA9
:1011B00000F0E4CFD9FF1200D9CFE5FFE1CFD9FF8E
:1011C00000C0E5FF01C0E5FF02C0E5FF03C0E5FF89
:1011D00004C0E5FF05C0E5FF06C0E5FF07C0E5FF69
:1011E000010EE56E000EE56E00EC0BF0020EE1263E
:1011F000480E006E0D0E016E026A036A00C004F014
:1012000001C005F002C006F003C007F0FF0E002683
:10121000FF0E0122FF0E0222FF0E032204500510D2
:1012200006100710EBE1000EE56E200EE56E200EB5
:10123000E56E0F0EE56E370EE56E13EC08F0050E49
:10124000E126E4CF07F0E4CF06F0E4CF05F0E4CFE9
:1012500004F0E4CF03F0E4CF02F0E4CF01F0E4CFF8
:1012600000F0E4CFD9FF1200D9CFE5FFE1CFD9FFDD
:1012700000C0E5FF01C0E5FF02C0E5FF03C0E5FFD8
:1012800004C0E5FF05C0E5FF06C0E5FF07C0E5FFB8
:10129000000EE56E080EE56E020EE56E100EE56EB0
:1012A00015EC07F0040EE126100E006E980E016E8C
:1012B000020E026E036A00C004F001C005F002C015
:1012C00006F003C007F0FF0E0026FF0E0122FF0EFE
:1012D0000222FF0E03220450051006100710EBE156
:1012E00031EC0BF0E4CF07F0E4CF06F0E4CF05F0EB
:1012F000E4CF04F0E4CF03F0E4CF02F0E4CF01F058
:10130000E4CF00F0E4CFD9FF1200600EF66E170EA6
:10131000F76E000EF86E0900F550056E0900F550E5
:10132000066E055002E106503BE00900F550006EE4
:101330000900F550016E0900F550026E0900090020
:10134000F550E96E0900F550EA6E09000900090040
:10135000F550036E0900F550046E09000900F6CF40
:1013600007F0F7CF08F0F8CF09F000C0F6FF01C092
:10137000F7FF02C0F8FF035002E1045007E0090044
:10138000F550EE6E0306F8E20406F9D707C0F6FF43
:1013900008C0F7FF09C0F8FF0506C4E20606C5D776
:1013A0001200D9CFE5FFE1CFD9FF00C0E5FF01C0B2
:1013B000E5FF02C0E5FF020EDBCF00F0000EE56E98
:1013C000070EE56EF00EE56E000EE56E15EC07F00B
:1013D000040EE1260050030DF3CF00F0016A000E69
:1013E00000260F0E012200C0E9FF01C0EAFFEECF88
:1013F00000F0EECF01F0EFCF02F00250E56E0150A9
:10140000E56E0050E56E000EE56E15EC07F0040E7B
:10141000E126E4CF02F0E4CF01F0E4CF00F0E4CF26
:10142000D9FF1200D9CFE5FFE1CFD9FF00C0E5FF1A
:1014300001C0E5FF02C0E5FF03C0E5FF04C0E5FF12
:1014400005C0E5FF020EDBCF00F0030EDBCF01F09D
:10145000040EDBCF02F0036A046A00C0E9FF01C09A
:10146000F3FF025089EC0BF0056E002AD8B0012A78
:10147000D8B0022A055004E0032AD8B0042AEDD7D8
:1014800004C0F3FF0350E4CF05F0E4CF04F0E4CF51
:1014900003F0E4CF02F0E4CF01F0E4CF00F0E4CFBA
:1014A000D9FF1200E8CFE5FFD8CFE5FFE0CFE5FF99
:1014B000F3CFE5FFF4CFE5FFE9CFE5FFEACFE5FFA6
:1014C000FACFE5FFFBCFE5FFD9CFE5FFE1CFD9FFAD
:1014D00000C0E5FF91CF00F0F80E0016010E0010DD
:1014E000916EF2A405D00F01352B31EC0BF0F29484
:1014F000E4CF00F0E4CFD9FFE4CFFBFFE4CFFAFF65
:10150000E4CFEAFFE4CFE9FFE4CFF4FFE4CFF3FF59
:10151000E4CFE0FFE4CFD8FFE4CFE8FF1000D9CF5D
:10152000E5FFE1CFD9FF00C0E5FF01C0E5FF02C044
:10153000E5FF03C0E5FF020EDBCF00F0030EDBCFBB
:1015400001F0026A036A01BE0CD0D8900136015046
:10155000005C03E2D890013204D0032A03C002F0F9
:10156000F2D70150005C02E30150005ED8900132D6
:1015700002C003F002060350F4E10050E4CF03F090
:10158000E4CF02F0E4CF01F0E4CF00F0E4CFD9FFE4
:101590001200D9CFE5FFE1CFD9FF00C0E5FF01C0C0
:1015A000E5FF02C0E5FF03C0E5FF04C0E5FF020E52
:1015B000DBCF00F0030EDBCF01F0026A080E036EF2
:1015C000800E0014046ED8900036D8900236045075
:1015D000D8A402800150025C03E30150025E008047
:1015E000032EEED70050E4CF04F0E4CF03F0E4CFB5
:1015F00002F0E4CF01F0E4CF00F0E4CFD9FF120015
:10160000D9CFE5FFE1CFD9FF00C0E5FF01C0E5FF7D
:10161000020EDBCF00F0030EDBCF01F0966A999447
:10162000999290920050010BE844E844F46E905077
:10163000FB0BF410906E01C08DFF00000000908045
:10164000000000000000000000000000000000009A
:1016500000009090E4CF01F0E4CF00F0E4CFD9FF98
:101660001200D9CFE5FFE1CFD9FF00C0E5FF01C0EF
:10167000E5FF02C0E5FF3FEC05F0006EF3CF01F09F
:10168000F4CF02F00250E56E0150E56E0050E56EB9
:10169000100EE56E15EC07F0040EE126E4CF02F023
:1016A000E4CF01F0E4CF00F0E4CFD9FF120004084A
:1016B000000C08001E08002A08003408003E08003C
:1016C0004808005208005C08006608007208007EA6
:1016D00008008A0800900800A00800AE0800BC08B6
:1016E000000000000000D9CFE5FFE1CFD9FF00C026
:1016F000E5FFF80E911631EC0BF091CF00F0F80EEB
:101700000016010E0010916EE4CF00F0E4CFD9FF77
:101710001200E8AE04D0F3CFEAFFEE501200E8BCAE
:1017200008D0E9CFF6FFF3CFF7FFF86E0900F550C8
:101730001200120017EEFFF027EEFFF0F86AA68EF7
:10174000A69C85EC09F09DEC07F0FFD7E8AE05D02C
:10175000F3CFEAFFE4CFEEFF1200E8AC1200120074
:0E1760000100AE160000000F00003700000070
:00000001FF
