:020000040000FA
:10000000B5EF00F0940EF66E010EF76E000EF86E6E
:100010000900F550056E0900F550066E055002E125
:1000200006503BE00900F550006E0900F550016EE6
:100030000900F550026E09000900F550E96E09004B
:10004000F550EA6E090009000900F550036E090039
:10005000F550046E09000900F6CF07F0F7CF08F05D
:10006000F8CF09F000C0F6FF01C0F7FF02C0F8FFAB
:10007000035002E1045007E00900F550EE6E03065C
:10008000F8E20406F9D707C0F6FF08C0F7FF09C079
:10009000F8FF0506C4E20606C5D71200D9CFE5FF72
:1000A000E1CFD9FF00C0E5FF01C0E5FF02C0E5FFD9
:1000B00003C0E5FF020EDBCF00F0030EDBCF01F043
:1000C00000C002F001C003F0FF0E0026D8A0010618
:1000D0000250031003E0A0EC00F0F2D7E4CF03F0ED
:1000E000E4CF02F0E4CF01F0E4CF00F0E4CFD9FF99
:1000F0001200C1EC00F091809192030EE56EE80EC3
:10010000E56E4EEC00F0020EE126006A91B0002A86
:10011000010E001A0050010BF46E9150FE0BF4100A
:10012000916E006A91B2002A010E001A0050010B74
:10013000E844F46E9150FD0BF410916EDED712007E
:10014000D9CFE5FFE1CFD9FFD80ED76EF00ED66E2E
:10015000D59ED59CD59AD586F294D58EF2A4FED79D
:10016000F294D59EE4CFD9FF120017EEFFF027EEF0
:10017000FFF0F86AA68EA69C02EC00F079EC00F085
:10018000FFD7D9CFE5FFE1CFD9FF9A909A92E4CF7C
:10019000D9FF12000100A2010000000F00000100C1
:0401A000000000005B
:00000001FF
